{
  "_format": "hh-sol-artifact-1",
  "contractName": "AccessCard",
  "sourceName": "contracts/AccessCard.sol",
  "abi": [
    {
      "inputs": [],
      "stateMutability": "nonpayable",
      "type": "constructor"
    },
    {
      "anonymous": false,
      "inputs": [
        {
          "indexed": true,
          "internalType": "address",
          "name": "owner",
          "type": "address"
        },
        {
          "indexed": true,
          "internalType": "address",
          "name": "approved",
          "type": "address"
        },
        {
          "indexed": true,
          "internalType": "uint256",
          "name": "tokenId",
          "type": "uint256"
        }
      ],
      "name": "Approval",
      "type": "event"
    },
    {
      "anonymous": false,
      "inputs": [
        {
          "indexed": true,
          "internalType": "address",
          "name": "owner",
          "type": "address"
        },
        {
          "indexed": true,
          "internalType": "address",
          "name": "operator",
          "type": "address"
        },
        {
          "indexed": false,
          "internalType": "bool",
          "name": "approved",
          "type": "bool"
        }
      ],
      "name": "ApprovalForAll",
      "type": "event"
    },
    {
      "anonymous": false,
      "inputs": [
        {
          "indexed": true,
          "internalType": "address",
          "name": "previousOwner",
          "type": "address"
        },
        {
          "indexed": true,
          "internalType": "address",
          "name": "newOwner",
          "type": "address"
        }
      ],
      "name": "OwnershipTransferred",
      "type": "event"
    },
    {
      "anonymous": false,
      "inputs": [
        {
          "indexed": true,
          "internalType": "address",
          "name": "from",
          "type": "address"
        },
        {
          "indexed": true,
          "internalType": "address",
          "name": "to",
          "type": "address"
        },
        {
          "indexed": true,
          "internalType": "uint256",
          "name": "tokenId",
          "type": "uint256"
        }
      ],
      "name": "Transfer",
      "type": "event"
    },
    {
      "inputs": [
        {
          "internalType": "address",
          "name": "to",
          "type": "address"
        },
        {
          "internalType": "uint256",
          "name": "tokenId",
          "type": "uint256"
        }
      ],
      "name": "approve",
      "outputs": [],
      "stateMutability": "nonpayable",
      "type": "function"
    },
    {
      "inputs": [
        {
          "internalType": "address",
          "name": "owner",
          "type": "address"
        }
      ],
      "name": "balanceOf",
      "outputs": [
        {
          "internalType": "uint256",
          "name": "",
          "type": "uint256"
        }
      ],
      "stateMutability": "view",
      "type": "function"
    },
    {
      "inputs": [
        {
          "internalType": "uint256",
          "name": "tokenId",
          "type": "uint256"
        }
      ],
      "name": "burn",
      "outputs": [],
      "stateMutability": "nonpayable",
      "type": "function"
    },
    {
      "inputs": [
        {
          "internalType": "uint256",
          "name": "tokenId",
          "type": "uint256"
        }
      ],
      "name": "getApproved",
      "outputs": [
        {
          "internalType": "address",
          "name": "",
          "type": "address"
        }
      ],
      "stateMutability": "view",
      "type": "function"
    },
    {
      "inputs": [
        {
          "internalType": "address",
          "name": "owner",
          "type": "address"
        },
        {
          "internalType": "address",
          "name": "operator",
          "type": "address"
        }
      ],
      "name": "isApprovedForAll",
      "outputs": [
        {
          "internalType": "bool",
          "name": "",
          "type": "bool"
        }
      ],
      "stateMutability": "view",
      "type": "function"
    },
    {
      "inputs": [],
      "name": "name",
      "outputs": [
        {
          "internalType": "string",
          "name": "",
          "type": "string"
        }
      ],
      "stateMutability": "view",
      "type": "function"
    },
    {
      "inputs": [],
      "name": "owner",
      "outputs": [
        {
          "internalType": "address",
          "name": "",
          "type": "address"
        }
      ],
      "stateMutability": "view",
      "type": "function"
    },
    {
      "inputs": [
        {
          "internalType": "uint256",
          "name": "tokenId",
          "type": "uint256"
        }
      ],
      "name": "ownerOf",
      "outputs": [
        {
          "internalType": "address",
          "name": "",
          "type": "address"
        }
      ],
      "stateMutability": "view",
      "type": "function"
    },
    {
      "inputs": [],
      "name": "renounceOwnership",
      "outputs": [],
      "stateMutability": "nonpayable",
      "type": "function"
    },
    {
      "inputs": [
        {
          "internalType": "address",
          "name": "to",
          "type": "address"
        }
      ],
      "name": "safeMint",
      "outputs": [],
      "stateMutability": "nonpayable",
      "type": "function"
    },
    {
      "inputs": [
        {
          "internalType": "address",
          "name": "from",
          "type": "address"
        },
        {
          "internalType": "address",
          "name": "to",
          "type": "address"
        },
        {
          "internalType": "uint256",
          "name": "tokenId",
          "type": "uint256"
        }
      ],
      "name": "safeTransferFrom",
      "outputs": [],
      "stateMutability": "nonpayable",
      "type": "function"
    },
    {
      "inputs": [
        {
          "internalType": "address",
          "name": "from",
          "type": "address"
        },
        {
          "internalType": "address",
          "name": "to",
          "type": "address"
        },
        {
          "internalType": "uint256",
          "name": "tokenId",
          "type": "uint256"
        },
        {
          "internalType": "bytes",
          "name": "data",
          "type": "bytes"
        }
      ],
      "name": "safeTransferFrom",
      "outputs": [],
      "stateMutability": "nonpayable",
      "type": "function"
    },
    {
      "inputs": [
        {
          "internalType": "address",
          "name": "operator",
          "type": "address"
        },
        {
          "internalType": "bool",
          "name": "approved",
          "type": "bool"
        }
      ],
      "name": "setApprovalForAll",
      "outputs": [],
      "stateMutability": "nonpayable",
      "type": "function"
    },
    {
      "inputs": [
        {
          "internalType": "bytes4",
          "name": "interfaceId",
          "type": "bytes4"
        }
      ],
      "name": "supportsInterface",
      "outputs": [
        {
          "internalType": "bool",
          "name": "",
          "type": "bool"
        }
      ],
      "stateMutability": "view",
      "type": "function"
    },
    {
      "inputs": [],
      "name": "symbol",
      "outputs": [
        {
          "internalType": "string",
          "name": "",
          "type": "string"
        }
      ],
      "stateMutability": "view",
      "type": "function"
    },
    {
      "inputs": [
        {
          "internalType": "uint256",
          "name": "tokenId",
          "type": "uint256"
        }
      ],
      "name": "tokenURI",
      "outputs": [
        {
          "internalType": "string",
          "name": "",
          "type": "string"
        }
      ],
      "stateMutability": "view",
      "type": "function"
    },
    {
      "inputs": [
        {
          "internalType": "address",
          "name": "from",
          "type": "address"
        },
        {
          "internalType": "address",
          "name": "to",
          "type": "address"
        },
        {
          "internalType": "uint256",
          "name": "tokenId",
          "type": "uint256"
        }
      ],
      "name": "transferFrom",
      "outputs": [],
      "stateMutability": "nonpayable",
      "type": "function"
    },
    {
      "inputs": [
        {
          "internalType": "address",
          "name": "newOwner",
          "type": "address"
        }
      ],
      "name": "transferOwnership",
      "outputs": [],
      "stateMutability": "nonpayable",
      "type": "function"
    }
  ],
  "bytecode": "0x60806040523480156200001157600080fd5b506040518060400160405280601a81526020017f46756e6420546f676574686572205075626c69657220436172640000000000008152506040518060400160405280600481526020017f465450430000000000000000000000000000000000000000000000000000000081525081600090816200008f919062000412565b508060019081620000a1919062000412565b505050620000c4620000b8620000ca60201b60201c565b620000d260201b60201c565b620004f9565b600033905090565b6000600760009054906101000a900473ffffffffffffffffffffffffffffffffffffffff16905081600760006101000a81548173ffffffffffffffffffffffffffffffffffffffff021916908373ffffffffffffffffffffffffffffffffffffffff1602179055508173ffffffffffffffffffffffffffffffffffffffff168173ffffffffffffffffffffffffffffffffffffffff167f8be0079c531659141344cd1fd0a4f28419497f9722a3daafe3b4186f6b6457e060405160405180910390a35050565b600081519050919050565b7f4e487b7100000000000000000000000000000000000000000000000000000000600052604160045260246000fd5b7f4e487b7100000000000000000000000000000000000000000000000000000000600052602260045260246000fd5b600060028204905060018216806200021a57607f821691505b60208210810362000230576200022f620001d2565b5b50919050565b60008190508160005260206000209050919050565b60006020601f8301049050919050565b600082821b905092915050565b6000600883026200029a7fffffffffffffffffffffffffffffffffffffffffffffffffffffffffffffffff826200025b565b620002a686836200025b565b95508019841693508086168417925050509392505050565b6000819050919050565b6000819050919050565b6000620002f3620002ed620002e784620002be565b620002c8565b620002be565b9050919050565b6000819050919050565b6200030f83620002d2565b620003276200031e82620002fa565b84845462000268565b825550505050565b600090565b6200033e6200032f565b6200034b81848462000304565b505050565b5b8181101562000373576200036760008262000334565b60018101905062000351565b5050565b601f821115620003c2576200038c8162000236565b62000397846200024b565b81016020851015620003a7578190505b620003bf620003b6856200024b565b83018262000350565b50505b505050565b600082821c905092915050565b6000620003e760001984600802620003c7565b1980831691505092915050565b6000620004028383620003d4565b9150826002028217905092915050565b6200041d8262000198565b67ffffffffffffffff811115620004395762000438620001a3565b5b62000445825462000201565b6200045282828562000377565b600060209050601f8311600181146200048a576000841562000475578287015190505b620004818582620003f4565b865550620004f1565b601f1984166200049a8662000236565b60005b82811015620004c4578489015182556001820191506020850194506020810190506200049d565b86831015620004e45784890151620004e0601f891682620003d4565b8355505b6001600288020188555050505b505050505050565b612e0d80620005096000396000f3fe608060405234801561001057600080fd5b50600436106101165760003560e01c806370a08231116100a2578063a22cb46511610071578063a22cb465146102cb578063b88d4fde146102e7578063c87b56dd14610303578063e985e9c514610333578063f2fde38b1461036357610116565b806370a0823114610255578063715018a6146102855780638da5cb5b1461028f57806395d89b41146102ad57610116565b806323b872dd116100e957806323b872dd146101b557806340d097c3146101d157806342842e0e146101ed57806342966c68146102095780636352211e1461022557610116565b806301ffc9a71461011b57806306fdde031461014b578063081812fc14610169578063095ea7b314610199575b600080fd5b61013560048036038101906101309190611f74565b61037f565b6040516101429190611fbc565b60405180910390f35b610153610461565b6040516101609190612067565b60405180910390f35b610183600480360381019061017e91906120bf565b6104f3565b604051610190919061212d565b60405180910390f35b6101b360048036038101906101ae9190612174565b610539565b005b6101cf60048036038101906101ca91906121b4565b610650565b005b6101eb60048036038101906101e69190612207565b6106b0565b005b610207600480360381019061020291906121b4565b6106de565b005b610223600480360381019061021e91906120bf565b6106fe565b005b61023f600480360381019061023a91906120bf565b61075a565b60405161024c919061212d565b60405180910390f35b61026f600480360381019061026a9190612207565b6107e0565b60405161027c9190612243565b60405180910390f35b61028d610897565b005b6102976108ab565b6040516102a4919061212d565b60405180910390f35b6102b56108d5565b6040516102c29190612067565b60405180910390f35b6102e560048036038101906102e0919061228a565b610967565b005b61030160048036038101906102fc91906123ff565b61097d565b005b61031d600480360381019061031891906120bf565b6109df565b60405161032a9190612067565b60405180910390f35b61034d60048036038101906103489190612482565b6109f1565b60405161035a9190611fbc565b60405180910390f35b61037d60048036038101906103789190612207565b610a85565b005b60007f80ac58cd000000000000000000000000000000000000000000000000000000007bffffffffffffffffffffffffffffffffffffffffffffffffffffffff1916827bffffffffffffffffffffffffffffffffffffffffffffffffffffffff1916148061044a57507f5b5e139f000000000000000000000000000000000000000000000000000000007bffffffffffffffffffffffffffffffffffffffffffffffffffffffff1916827bffffffffffffffffffffffffffffffffffffffffffffffffffffffff1916145b8061045a575061045982610b08565b5b9050919050565b606060008054610470906124f1565b80601f016020809104026020016040519081016040528092919081815260200182805461049c906124f1565b80156104e95780601f106104be576101008083540402835291602001916104e9565b820191906000526020600020905b8154815290600101906020018083116104cc57829003601f168201915b5050505050905090565b60006104fe82610b72565b6004600083815260200190815260200160002060009054906101000a900473ffffffffffffffffffffffffffffffffffffffff169050919050565b60006105448261075a565b90508073ffffffffffffffffffffffffffffffffffffffff168373ffffffffffffffffffffffffffffffffffffffff16036105b4576040517f08c379a00000000000000000000000000000000000000000000000000000000081526004016105ab90612594565b60405180910390fd5b8073ffffffffffffffffffffffffffffffffffffffff166105d3610bbd565b73ffffffffffffffffffffffffffffffffffffffff1614806106025750610601816105fc610bbd565b6109f1565b5b610641576040517f08c379a000000000000000000000000000000000000000000000000000000000815260040161063890612626565b60405180910390fd5b61064b8383610bc5565b505050565b61066161065b610bbd565b82610c7e565b6106a0576040517f08c379a0000000000000000000000000000000000000000000000000000000008152600401610697906126b8565b60405180910390fd5b6106ab838383610d13565b505050565b6106b861100c565b60006106c4600861108a565b90506106d06008611098565b6106da82826110ae565b5050565b6106f98383836040518060200160405280600081525061097d565b505050565b61070f610709610bbd565b82610c7e565b61074e576040517f08c379a0000000000000000000000000000000000000000000000000000000008152600401610745906126b8565b60405180910390fd5b610757816110cc565b50565b600080610766836110d8565b9050600073ffffffffffffffffffffffffffffffffffffffff168173ffffffffffffffffffffffffffffffffffffffff16036107d7576040517f08c379a00000000000000000000000000000000000000000000000000000000081526004016107ce90612724565b60405180910390fd5b80915050919050565b60008073ffffffffffffffffffffffffffffffffffffffff168273ffffffffffffffffffffffffffffffffffffffff1603610850576040517f08c379a0000000000000000000000000000000000000000000000000000000008152600401610847906127b6565b60405180910390fd5b600360008373ffffffffffffffffffffffffffffffffffffffff1673ffffffffffffffffffffffffffffffffffffffff168152602001908152602001600020549050919050565b61089f61100c565b6108a96000611115565b565b6000600760009054906101000a900473ffffffffffffffffffffffffffffffffffffffff16905090565b6060600180546108e4906124f1565b80601f0160208091040260200160405190810160405280929190818152602001828054610910906124f1565b801561095d5780601f106109325761010080835404028352916020019161095d565b820191906000526020600020905b81548152906001019060200180831161094057829003601f168201915b5050505050905090565b610979610972610bbd565b83836111db565b5050565b61098e610988610bbd565b83610c7e565b6109cd576040517f08c379a00000000000000000000000000000000000000000000000000000000081526004016109c4906126b8565b60405180910390fd5b6109d984848484611347565b50505050565b60606109ea826113a3565b9050919050565b6000600560008473ffffffffffffffffffffffffffffffffffffffff1673ffffffffffffffffffffffffffffffffffffffff16815260200190815260200160002060008373ffffffffffffffffffffffffffffffffffffffff1673ffffffffffffffffffffffffffffffffffffffff16815260200190815260200160002060009054906101000a900460ff16905092915050565b610a8d61100c565b600073ffffffffffffffffffffffffffffffffffffffff168173ffffffffffffffffffffffffffffffffffffffff1603610afc576040517f08c379a0000000000000000000000000000000000000000000000000000000008152600401610af390612848565b60405180910390fd5b610b0581611115565b50565b60007f01ffc9a7000000000000000000000000000000000000000000000000000000007bffffffffffffffffffffffffffffffffffffffffffffffffffffffff1916827bffffffffffffffffffffffffffffffffffffffffffffffffffffffff1916149050919050565b610b7b816114b5565b610bba576040517f08c379a0000000000000000000000000000000000000000000000000000000008152600401610bb190612724565b60405180910390fd5b50565b600033905090565b816004600083815260200190815260200160002060006101000a81548173ffffffffffffffffffffffffffffffffffffffff021916908373ffffffffffffffffffffffffffffffffffffffff160217905550808273ffffffffffffffffffffffffffffffffffffffff16610c388361075a565b73ffffffffffffffffffffffffffffffffffffffff167f8c5be1e5ebec7d5bd14f71427d1e84f3dd0314c0f7b2291e5b200ac8c7c3b92560405160405180910390a45050565b600080610c8a8361075a565b90508073ffffffffffffffffffffffffffffffffffffffff168473ffffffffffffffffffffffffffffffffffffffff161480610ccc5750610ccb81856109f1565b5b80610d0a57508373ffffffffffffffffffffffffffffffffffffffff16610cf2846104f3565b73ffffffffffffffffffffffffffffffffffffffff16145b91505092915050565b8273ffffffffffffffffffffffffffffffffffffffff16610d338261075a565b73ffffffffffffffffffffffffffffffffffffffff1614610d89576040517f08c379a0000000000000000000000000000000000000000000000000000000008152600401610d80906128da565b60405180910390fd5b600073ffffffffffffffffffffffffffffffffffffffff168273ffffffffffffffffffffffffffffffffffffffff1603610df8576040517f08c379a0000000000000000000000000000000000000000000000000000000008152600401610def9061296c565b60405180910390fd5b610e0583838360016114f6565b8273ffffffffffffffffffffffffffffffffffffffff16610e258261075a565b73ffffffffffffffffffffffffffffffffffffffff1614610e7b576040517f08c379a0000000000000000000000000000000000000000000000000000000008152600401610e72906128da565b60405180910390fd5b6004600082815260200190815260200160002060006101000a81549073ffffffffffffffffffffffffffffffffffffffff02191690556001600360008573ffffffffffffffffffffffffffffffffffffffff1673ffffffffffffffffffffffffffffffffffffffff168152602001908152602001600020600082825403925050819055506001600360008473ffffffffffffffffffffffffffffffffffffffff1673ffffffffffffffffffffffffffffffffffffffff16815260200190815260200160002060008282540192505081905550816002600083815260200190815260200160002060006101000a81548173ffffffffffffffffffffffffffffffffffffffff021916908373ffffffffffffffffffffffffffffffffffffffff160217905550808273ffffffffffffffffffffffffffffffffffffffff168473ffffffffffffffffffffffffffffffffffffffff167fddf252ad1be2c89b69c2b068fc378daa952ba7f163c4a11628f55a4df523b3ef60405160405180910390a4611007838383600161161c565b505050565b611014610bbd565b73ffffffffffffffffffffffffffffffffffffffff166110326108ab565b73ffffffffffffffffffffffffffffffffffffffff1614611088576040517f08c379a000000000000000000000000000000000000000000000000000000000815260040161107f906129d8565b60405180910390fd5b565b600081600001549050919050565b6001816000016000828254019250508190555050565b6110c8828260405180602001604052806000815250611622565b5050565b6110d58161167d565b50565b60006002600083815260200190815260200160002060009054906101000a900473ffffffffffffffffffffffffffffffffffffffff169050919050565b6000600760009054906101000a900473ffffffffffffffffffffffffffffffffffffffff16905081600760006101000a81548173ffffffffffffffffffffffffffffffffffffffff021916908373ffffffffffffffffffffffffffffffffffffffff1602179055508173ffffffffffffffffffffffffffffffffffffffff168173ffffffffffffffffffffffffffffffffffffffff167f8be0079c531659141344cd1fd0a4f28419497f9722a3daafe3b4186f6b6457e060405160405180910390a35050565b8173ffffffffffffffffffffffffffffffffffffffff168373ffffffffffffffffffffffffffffffffffffffff1603611249576040517f08c379a000000000000000000000000000000000000000000000000000000000815260040161124090612a44565b60405180910390fd5b80600560008573ffffffffffffffffffffffffffffffffffffffff1673ffffffffffffffffffffffffffffffffffffffff16815260200190815260200160002060008473ffffffffffffffffffffffffffffffffffffffff1673ffffffffffffffffffffffffffffffffffffffff16815260200190815260200160002060006101000a81548160ff0219169083151502179055508173ffffffffffffffffffffffffffffffffffffffff168373ffffffffffffffffffffffffffffffffffffffff167f17307eab39ab6107e8899845ad3d59bd9653f200f220920489ca2b5937696c318360405161133a9190611fbc565b60405180910390a3505050565b611352848484610d13565b61135e848484846116d0565b61139d576040517f08c379a000000000000000000000000000000000000000000000000000000000815260040161139490612ad6565b60405180910390fd5b50505050565b60606113ae82610b72565b60006006600084815260200190815260200160002080546113ce906124f1565b80601f01602080910402602001604051908101604052809291908181526020018280546113fa906124f1565b80156114475780601f1061141c57610100808354040283529160200191611447565b820191906000526020600020905b81548152906001019060200180831161142a57829003601f168201915b505050505090506000611458611857565b9050600081510361146d5781925050506114b0565b6000825111156114a257808260405160200161148a929190612b32565b604051602081830303815290604052925050506114b0565b6114ab84611894565b925050505b919050565b60008073ffffffffffffffffffffffffffffffffffffffff166114d7836110d8565b73ffffffffffffffffffffffffffffffffffffffff1614159050919050565b600181111561161657600073ffffffffffffffffffffffffffffffffffffffff168473ffffffffffffffffffffffffffffffffffffffff161461158a5780600360008673ffffffffffffffffffffffffffffffffffffffff1673ffffffffffffffffffffffffffffffffffffffff16815260200190815260200160002060008282546115829190612b85565b925050819055505b600073ffffffffffffffffffffffffffffffffffffffff168373ffffffffffffffffffffffffffffffffffffffff16146116155780600360008573ffffffffffffffffffffffffffffffffffffffff1673ffffffffffffffffffffffffffffffffffffffff168152602001908152602001600020600082825461160d9190612bb9565b925050819055505b5b50505050565b50505050565b61162c83836118fc565b61163960008484846116d0565b611678576040517f08c379a000000000000000000000000000000000000000000000000000000000815260040161166f90612ad6565b60405180910390fd5b505050565b61168681611b19565b60006006600083815260200190815260200160002080546116a6906124f1565b9050146116cd576006600082815260200190815260200160002060006116cc9190611eab565b5b50565b60006116f18473ffffffffffffffffffffffffffffffffffffffff16611c67565b1561184a578373ffffffffffffffffffffffffffffffffffffffff1663150b7a0261171a610bbd565b8786866040518563ffffffff1660e01b815260040161173c9493929190612c42565b6020604051808303816000875af192505050801561177857506040513d601f19601f820116820180604052508101906117759190612ca3565b60015b6117fa573d80600081146117a8576040519150601f19603f3d011682016040523d82523d6000602084013e6117ad565b606091505b5060008151036117f2576040517f08c379a00000000000000000000000000000000000000000000000000000000081526004016117e990612ad6565b60405180910390fd5b805181602001fd5b63150b7a0260e01b7bffffffffffffffffffffffffffffffffffffffffffffffffffffffff1916817bffffffffffffffffffffffffffffffffffffffffffffffffffffffff19161491505061184f565b600190505b949350505050565b60606040518060400160405280600181526020017f2f00000000000000000000000000000000000000000000000000000000000000815250905090565b606061189f82610b72565b60006118a9611857565b905060008151116118c957604051806020016040528060008152506118f4565b806118d384611c8a565b6040516020016118e4929190612b32565b6040516020818303038152906040525b915050919050565b600073ffffffffffffffffffffffffffffffffffffffff168273ffffffffffffffffffffffffffffffffffffffff160361196b576040517f08c379a000000000000000000000000000000000000000000000000000000000815260040161196290612d1c565b60405180910390fd5b611974816114b5565b156119b4576040517f08c379a00000000000000000000000000000000000000000000000000000000081526004016119ab90612d88565b60405180910390fd5b6119c26000838360016114f6565b6119cb816114b5565b15611a0b576040517f08c379a0000000000000000000000000000000000000000000000000000000008152600401611a0290612d88565b60405180910390fd5b6001600360008473ffffffffffffffffffffffffffffffffffffffff1673ffffffffffffffffffffffffffffffffffffffff16815260200190815260200160002060008282540192505081905550816002600083815260200190815260200160002060006101000a81548173ffffffffffffffffffffffffffffffffffffffff021916908373ffffffffffffffffffffffffffffffffffffffff160217905550808273ffffffffffffffffffffffffffffffffffffffff16600073ffffffffffffffffffffffffffffffffffffffff167fddf252ad1be2c89b69c2b068fc378daa952ba7f163c4a11628f55a4df523b3ef60405160405180910390a4611b1560008383600161161c565b5050565b6000611b248261075a565b9050611b348160008460016114f6565b611b3d8261075a565b90506004600083815260200190815260200160002060006101000a81549073ffffffffffffffffffffffffffffffffffffffff02191690556001600360008373ffffffffffffffffffffffffffffffffffffffff1673ffffffffffffffffffffffffffffffffffffffff168152602001908152602001600020600082825403925050819055506002600083815260200190815260200160002060006101000a81549073ffffffffffffffffffffffffffffffffffffffff021916905581600073ffffffffffffffffffffffffffffffffffffffff168273ffffffffffffffffffffffffffffffffffffffff167fddf252ad1be2c89b69c2b068fc378daa952ba7f163c4a11628f55a4df523b3ef60405160405180910390a4611c6381600084600161161c565b5050565b6000808273ffffffffffffffffffffffffffffffffffffffff163b119050919050565b606060006001611c9984611d58565b01905060008167ffffffffffffffff811115611cb857611cb76122d4565b5b6040519080825280601f01601f191660200182016040528015611cea5781602001600182028036833780820191505090505b509050600082602001820190505b600115611d4d578080600190039150507f3031323334353637383961626364656600000000000000000000000000000000600a86061a8153600a8581611d4157611d40612da8565b5b04945060008503611cf8575b819350505050919050565b600080600090507a184f03e93ff9f4daa797ed6e38ed64bf6a1f0100000000000000008310611db6577a184f03e93ff9f4daa797ed6e38ed64bf6a1f0100000000000000008381611dac57611dab612da8565b5b0492506040810190505b6d04ee2d6d415b85acef81000000008310611df3576d04ee2d6d415b85acef81000000008381611de957611de8612da8565b5b0492506020810190505b662386f26fc100008310611e2257662386f26fc100008381611e1857611e17612da8565b5b0492506010810190505b6305f5e1008310611e4b576305f5e1008381611e4157611e40612da8565b5b0492506008810190505b6127108310611e70576127108381611e6657611e65612da8565b5b0492506004810190505b60648310611e935760648381611e8957611e88612da8565b5b0492506002810190505b600a8310611ea2576001810190505b80915050919050565b508054611eb7906124f1565b6000825580601f10611ec95750611ee8565b601f016020900490600052602060002090810190611ee79190611eeb565b5b50565b5b80821115611f04576000816000905550600101611eec565b5090565b6000604051905090565b600080fd5b600080fd5b60007fffffffff0000000000000000000000000000000000000000000000000000000082169050919050565b611f5181611f1c565b8114611f5c57600080fd5b50565b600081359050611f6e81611f48565b92915050565b600060208284031215611f8a57611f89611f12565b5b6000611f9884828501611f5f565b91505092915050565b60008115159050919050565b611fb681611fa1565b82525050565b6000602082019050611fd16000830184611fad565b92915050565b600081519050919050565b600082825260208201905092915050565b60005b83811015612011578082015181840152602081019050611ff6565b60008484015250505050565b6000601f19601f8301169050919050565b600061203982611fd7565b6120438185611fe2565b9350612053818560208601611ff3565b61205c8161201d565b840191505092915050565b60006020820190508181036000830152612081818461202e565b905092915050565b6000819050919050565b61209c81612089565b81146120a757600080fd5b50565b6000813590506120b981612093565b92915050565b6000602082840312156120d5576120d4611f12565b5b60006120e3848285016120aa565b91505092915050565b600073ffffffffffffffffffffffffffffffffffffffff82169050919050565b6000612117826120ec565b9050919050565b6121278161210c565b82525050565b6000602082019050612142600083018461211e565b92915050565b6121518161210c565b811461215c57600080fd5b50565b60008135905061216e81612148565b92915050565b6000806040838503121561218b5761218a611f12565b5b60006121998582860161215f565b92505060206121aa858286016120aa565b9150509250929050565b6000806000606084860312156121cd576121cc611f12565b5b60006121db8682870161215f565b93505060206121ec8682870161215f565b92505060406121fd868287016120aa565b9150509250925092565b60006020828403121561221d5761221c611f12565b5b600061222b8482850161215f565b91505092915050565b61223d81612089565b82525050565b60006020820190506122586000830184612234565b92915050565b61226781611fa1565b811461227257600080fd5b50565b6000813590506122848161225e565b92915050565b600080604083850312156122a1576122a0611f12565b5b60006122af8582860161215f565b92505060206122c085828601612275565b9150509250929050565b600080fd5b600080fd5b7f4e487b7100000000000000000000000000000000000000000000000000000000600052604160045260246000fd5b61230c8261201d565b810181811067ffffffffffffffff8211171561232b5761232a6122d4565b5b80604052505050565b600061233e611f08565b905061234a8282612303565b919050565b600067ffffffffffffffff82111561236a576123696122d4565b5b6123738261201d565b9050602081019050919050565b82818337600083830152505050565b60006123a261239d8461234f565b612334565b9050828152602081018484840111156123be576123bd6122cf565b5b6123c9848285612380565b509392505050565b600082601f8301126123e6576123e56122ca565b5b81356123f684826020860161238f565b91505092915050565b6000806000806080858703121561241957612418611f12565b5b60006124278782880161215f565b94505060206124388782880161215f565b9350506040612449878288016120aa565b925050606085013567ffffffffffffffff81111561246a57612469611f17565b5b612476878288016123d1565b91505092959194509250565b6000806040838503121561249957612498611f12565b5b60006124a78582860161215f565b92505060206124b88582860161215f565b9150509250929050565b7f4e487b7100000000000000000000000000000000000000000000000000000000600052602260045260246000fd5b6000600282049050600182168061250957607f821691505b60208210810361251c5761251b6124c2565b5b50919050565b7f4552433732313a20617070726f76616c20746f2063757272656e74206f776e6560008201527f7200000000000000000000000000000000000000000000000000000000000000602082015250565b600061257e602183611fe2565b915061258982612522565b604082019050919050565b600060208201905081810360008301526125ad81612571565b9050919050565b7f4552433732313a20617070726f76652063616c6c6572206973206e6f7420746f60008201527f6b656e206f776e6572206f7220617070726f76656420666f7220616c6c000000602082015250565b6000612610603d83611fe2565b915061261b826125b4565b604082019050919050565b6000602082019050818103600083015261263f81612603565b9050919050565b7f4552433732313a2063616c6c6572206973206e6f7420746f6b656e206f776e6560008201527f72206f7220617070726f76656400000000000000000000000000000000000000602082015250565b60006126a2602d83611fe2565b91506126ad82612646565b604082019050919050565b600060208201905081810360008301526126d181612695565b9050919050565b7f4552433732313a20696e76616c696420746f6b656e2049440000000000000000600082015250565b600061270e601883611fe2565b9150612719826126d8565b602082019050919050565b6000602082019050818103600083015261273d81612701565b9050919050565b7f4552433732313a2061646472657373207a65726f206973206e6f74206120766160008201527f6c6964206f776e65720000000000000000000000000000000000000000000000602082015250565b60006127a0602983611fe2565b91506127ab82612744565b604082019050919050565b600060208201905081810360008301526127cf81612793565b9050919050565b7f4f776e61626c653a206e6577206f776e657220697320746865207a65726f206160008201527f6464726573730000000000000000000000000000000000000000000000000000602082015250565b6000612832602683611fe2565b915061283d826127d6565b604082019050919050565b6000602082019050818103600083015261286181612825565b9050919050565b7f4552433732313a207472616e736665722066726f6d20696e636f72726563742060008201527f6f776e6572000000000000000000000000000000000000000000000000000000602082015250565b60006128c4602583611fe2565b91506128cf82612868565b604082019050919050565b600060208201905081810360008301526128f3816128b7565b9050919050565b7f4552433732313a207472616e7366657220746f20746865207a65726f2061646460008201527f7265737300000000000000000000000000000000000000000000000000000000602082015250565b6000612956602483611fe2565b9150612961826128fa565b604082019050919050565b6000602082019050818103600083015261298581612949565b9050919050565b7f4f776e61626c653a2063616c6c6572206973206e6f7420746865206f776e6572600082015250565b60006129c2602083611fe2565b91506129cd8261298c565b602082019050919050565b600060208201905081810360008301526129f1816129b5565b9050919050565b7f4552433732313a20617070726f766520746f2063616c6c657200000000000000600082015250565b6000612a2e601983611fe2565b9150612a39826129f8565b602082019050919050565b60006020820190508181036000830152612a5d81612a21565b9050919050565b7f4552433732313a207472616e7366657220746f206e6f6e20455243373231526560008201527f63656976657220696d706c656d656e7465720000000000000000000000000000602082015250565b6000612ac0603283611fe2565b9150612acb82612a64565b604082019050919050565b60006020820190508181036000830152612aef81612ab3565b9050919050565b600081905092915050565b6000612b0c82611fd7565b612b168185612af6565b9350612b26818560208601611ff3565b80840191505092915050565b6000612b3e8285612b01565b9150612b4a8284612b01565b91508190509392505050565b7f4e487b7100000000000000000000000000000000000000000000000000000000600052601160045260246000fd5b6000612b9082612089565b9150612b9b83612089565b9250828203905081811115612bb357612bb2612b56565b5b92915050565b6000612bc482612089565b9150612bcf83612089565b9250828201905080821115612be757612be6612b56565b5b92915050565b600081519050919050565b600082825260208201905092915050565b6000612c1482612bed565b612c1e8185612bf8565b9350612c2e818560208601611ff3565b612c378161201d565b840191505092915050565b6000608082019050612c57600083018761211e565b612c64602083018661211e565b612c716040830185612234565b8181036060830152612c838184612c09565b905095945050505050565b600081519050612c9d81611f48565b92915050565b600060208284031215612cb957612cb8611f12565b5b6000612cc784828501612c8e565b91505092915050565b7f4552433732313a206d696e7420746f20746865207a65726f2061646472657373600082015250565b6000612d06602083611fe2565b9150612d1182612cd0565b602082019050919050565b60006020820190508181036000830152612d3581612cf9565b9050919050565b7f4552433732313a20746f6b656e20616c7265616479206d696e74656400000000600082015250565b6000612d72601c83611fe2565b9150612d7d82612d3c565b602082019050919050565b60006020820190508181036000830152612da181612d65565b9050919050565b7f4e487b7100000000000000000000000000000000000000000000000000000000600052601260045260246000fdfea26469706673582212204a3474904b907b96efac6987e4527ea7c0cb98a0e5a9448f6cf658d0caa21d0864736f6c63430008110033",
  "linkReferences": {},
  "deployedLinkReferences": {}
}