{
  "_format": "hh-sol-artifact-1",
  "contractName": "Campaign",
  "sourceName": "contracts/CampaignFactory.sol",
  "abi": [
    {
      "inputs": [
        {
          "internalType": "address",
          "name": "_creator",
          "type": "address"
        },
        {
          "internalType": "address",
          "name": "_admin",
          "type": "address"
        },
        {
          "internalType": "uint256",
          "name": "_minimum",
          "type": "uint256"
        },
        {
          "internalType": "address",
          "name": "_actualToken",
          "type": "address"
        },
        {
          "internalType": "address",
          "name": "_ibTokenAddress",
          "type": "address"
        }
      ],
      "stateMutability": "nonpayable",
      "type": "constructor"
    },
    {
      "inputs": [],
      "name": "actualToken",
      "outputs": [
        {
          "internalType": "address",
          "name": "",
          "type": "address"
        }
      ],
      "stateMutability": "view",
      "type": "function"
    },
    {
      "inputs": [],
      "name": "admin",
      "outputs": [
        {
          "internalType": "address",
          "name": "",
          "type": "address"
        }
      ],
      "stateMutability": "view",
      "type": "function"
    },
    {
      "inputs": [
        {
          "internalType": "uint256",
          "name": "_amount",
          "type": "uint256"
        }
      ],
      "name": "adminClaim",
      "outputs": [],
      "stateMutability": "payable",
      "type": "function"
    },
    {
      "inputs": [
        {
          "internalType": "address",
          "name": "",
          "type": "address"
        }
      ],
      "name": "approvers",
      "outputs": [
        {
          "internalType": "bool",
          "name": "",
          "type": "bool"
        }
      ],
      "stateMutability": "view",
      "type": "function"
    },
    {
      "inputs": [],
      "name": "approversCount",
      "outputs": [
        {
          "internalType": "uint256",
          "name": "",
          "type": "uint256"
        }
      ],
      "stateMutability": "view",
      "type": "function"
    },
    {
      "inputs": [
        {
          "internalType": "address",
          "name": "",
          "type": "address"
        }
      ],
      "name": "campaignBalance",
      "outputs": [
        {
          "internalType": "uint256",
          "name": "",
          "type": "uint256"
        }
      ],
      "stateMutability": "view",
      "type": "function"
    },
    {
      "inputs": [
        {
          "internalType": "uint256",
          "name": "_amount",
          "type": "uint256"
        }
      ],
      "name": "claim",
      "outputs": [],
      "stateMutability": "payable",
      "type": "function"
    },
    {
      "inputs": [
        {
          "internalType": "uint256",
          "name": "_amount",
          "type": "uint256"
        }
      ],
      "name": "contribute",
      "outputs": [],
      "stateMutability": "payable",
      "type": "function"
    },
    {
      "inputs": [],
      "name": "getSummary",
      "outputs": [
        {
          "internalType": "uint256",
          "name": "minimumContribution_",
          "type": "uint256"
        },
        {
          "internalType": "uint256",
          "name": "interestRate_",
          "type": "uint256"
        },
        {
          "internalType": "uint256",
          "name": "totalBalance_",
          "type": "uint256"
        },
        {
          "internalType": "uint256",
          "name": "approversCount_",
          "type": "uint256"
        },
        {
          "internalType": "address",
          "name": "manager_",
          "type": "address"
        },
        {
          "internalType": "address",
          "name": "actualToken_",
          "type": "address"
        },
        {
          "internalType": "address",
          "name": "ibTokenAddress_",
          "type": "address"
        },
        {
          "internalType": "address[]",
          "name": "supportedTokens_",
          "type": "address[]"
        }
      ],
      "stateMutability": "view",
      "type": "function"
    },
    {
      "inputs": [
        {
          "internalType": "address",
          "name": "_user",
          "type": "address"
        }
      ],
      "name": "getUserBalance",
      "outputs": [
        {
          "internalType": "uint256",
          "name": "userBal_",
          "type": "uint256"
        }
      ],
      "stateMutability": "view",
      "type": "function"
    },
    {
      "inputs": [],
      "name": "ibTokenAddress",
      "outputs": [
        {
          "internalType": "address",
          "name": "",
          "type": "address"
        }
      ],
      "stateMutability": "view",
      "type": "function"
    },
    {
      "inputs": [],
      "name": "interestRate",
      "outputs": [
        {
          "internalType": "uint256",
          "name": "",
          "type": "uint256"
        }
      ],
      "stateMutability": "view",
      "type": "function"
    },
    {
      "inputs": [],
      "name": "manager",
      "outputs": [
        {
          "internalType": "address",
          "name": "",
          "type": "address"
        }
      ],
      "stateMutability": "view",
      "type": "function"
    },
    {
      "inputs": [],
      "name": "minimumContribution",
      "outputs": [
        {
          "internalType": "uint256",
          "name": "",
          "type": "uint256"
        }
      ],
      "stateMutability": "view",
      "type": "function"
    },
    {
      "inputs": [
        {
          "internalType": "address",
          "name": "_actualToken",
          "type": "address"
        }
      ],
      "name": "setActualToken",
      "outputs": [
        {
          "internalType": "address",
          "name": "actualToken_",
          "type": "address"
        }
      ],
      "stateMutability": "nonpayable",
      "type": "function"
    },
    {
      "inputs": [
        {
          "internalType": "address",
          "name": "_newAdmin",
          "type": "address"
        }
      ],
      "name": "setAdmin",
      "outputs": [],
      "stateMutability": "nonpayable",
      "type": "function"
    },
    {
      "inputs": [
        {
          "internalType": "uint256",
          "name": "_interestRate",
          "type": "uint256"
        }
      ],
      "name": "setInterestRate",
      "outputs": [],
      "stateMutability": "nonpayable",
      "type": "function"
    },
    {
      "inputs": [
        {
          "internalType": "address",
          "name": "_newManager",
          "type": "address"
        }
      ],
      "name": "setManager",
      "outputs": [],
      "stateMutability": "nonpayable",
      "type": "function"
    },
    {
      "inputs": [
        {
          "internalType": "uint256",
          "name": "_amount",
          "type": "uint256"
        }
      ],
      "name": "setMinimumContribution",
      "outputs": [
        {
          "internalType": "uint256",
          "name": "amount_",
          "type": "uint256"
        }
      ],
      "stateMutability": "nonpayable",
      "type": "function"
    },
    {
      "inputs": [
        {
          "internalType": "uint256",
          "name": "",
          "type": "uint256"
        }
      ],
      "name": "supportedTokens",
      "outputs": [
        {
          "internalType": "address",
          "name": "",
          "type": "address"
        }
      ],
      "stateMutability": "view",
      "type": "function"
    },
    {
      "inputs": [
        {
          "internalType": "address",
          "name": "",
          "type": "address"
        }
      ],
      "name": "userBalance",
      "outputs": [
        {
          "internalType": "uint256",
          "name": "",
          "type": "uint256"
        }
      ],
      "stateMutability": "view",
      "type": "function"
    }
  ],
  "bytecode": "0x60806040523480156200001157600080fd5b5060405162001b2c38038062001b2c83398181016040528101906200003791906200025c565b846000806101000a81548173ffffffffffffffffffffffffffffffffffffffff021916908373ffffffffffffffffffffffffffffffffffffffff16021790555083600160006101000a81548173ffffffffffffffffffffffffffffffffffffffff021916908373ffffffffffffffffffffffffffffffffffffffff1602179055508260028190555081600560006101000a81548173ffffffffffffffffffffffffffffffffffffffff021916908373ffffffffffffffffffffffffffffffffffffffff1602179055506006829080600181540180825580915050600190039060005260206000200160009091909190916101000a81548173ffffffffffffffffffffffffffffffffffffffff021916908373ffffffffffffffffffffffffffffffffffffffff16021790555080600760006101000a81548173ffffffffffffffffffffffffffffffffffffffff021916908373ffffffffffffffffffffffffffffffffffffffff16021790555060056003819055505050505050620002e4565b600080fd5b600073ffffffffffffffffffffffffffffffffffffffff82169050919050565b6000620001e982620001bc565b9050919050565b620001fb81620001dc565b81146200020757600080fd5b50565b6000815190506200021b81620001f0565b92915050565b6000819050919050565b620002368162000221565b81146200024257600080fd5b50565b60008151905062000256816200022b565b92915050565b600080600080600060a086880312156200027b576200027a620001b7565b5b60006200028b888289016200020a565b95505060206200029e888289016200020a565b9450506040620002b18882890162000245565b9350506060620002c4888289016200020a565b9250506080620002d7888289016200020a565b9150509295509295909350565b61183880620002f46000396000f3fe60806040526004361061012a5760003560e01c80637c3a00fd116100ab578063bf4e56b31161006f578063bf4e56b3146103e1578063c1cbbca71461041e578063c62556261461043a578063d0ebdbe714610477578063dba3e704146104a0578063f851a440146104dd5761012a565b80637c3a00fd1461031957806382fde093146103445780638ad96d7d1461036f578063937e09b11461038b578063a6fcf79c146103b65761012a565b80634051ddac116100f25780634051ddac1461022d578063477348921461025f578063481c6a751461029c5780635f84f302146102c7578063704b6c02146102f05761012a565b80630103c92b1461012f5780630a1443911461016c5780630ebda6ae146101a9578063379607f5146101e657806338bb5b0714610202575b600080fd5b34801561013b57600080fd5b5061015660048036038101906101519190611367565b610508565b60405161016391906113ad565b60405180910390f35b34801561017857600080fd5b50610193600480360381019061018e9190611367565b610520565b6040516101a091906113e3565b60405180910390f35b3480156101b557600080fd5b506101d060048036038101906101cb9190611367565b610540565b6040516101dd91906113ad565b60405180910390f35b61020060048036038101906101fb919061142a565b610558565b005b34801561020e57600080fd5b50610217610900565b6040516102249190611466565b60405180910390f35b34801561023957600080fd5b50610242610926565b60405161025698979695949392919061153f565b60405180910390f35b34801561026b57600080fd5b5061028660048036038101906102819190611367565b610aa6565b60405161029391906113ad565b60405180910390f35b3480156102a857600080fd5b506102b1610aef565b6040516102be9190611466565b60405180910390f35b3480156102d357600080fd5b506102ee60048036038101906102e9919061142a565b610b13565b005b3480156102fc57600080fd5b5061031760048036038101906103129190611367565b610b75565b005b34801561032557600080fd5b5061032e610c11565b60405161033b91906113ad565b60405180910390f35b34801561035057600080fd5b50610359610c17565b60405161036691906113ad565b60405180910390f35b6103896004803603810190610384919061142a565b610c1d565b005b34801561039757600080fd5b506103a0610d91565b6040516103ad91906113ad565b60405180910390f35b3480156103c257600080fd5b506103cb610d97565b6040516103d89190611466565b60405180910390f35b3480156103ed57600080fd5b5061040860048036038101906104039190611367565b610dbd565b6040516104159190611466565b60405180910390f35b6104386004803603810190610433919061142a565b610ec2565b005b34801561044657600080fd5b50610461600480360381019061045c919061142a565b61119c565b60405161046e9190611466565b60405180910390f35b34801561048357600080fd5b5061049e60048036038101906104999190611367565b6111db565b005b3480156104ac57600080fd5b506104c760048036038101906104c2919061142a565b611276565b6040516104d491906113ad565b60405180910390f35b3480156104e957600080fd5b506104f26112de565b6040516104ff9190611466565b60405180910390f35b60096020528060005260406000206000915090505481565b60086020528060005260406000206000915054906101000a900460ff1681565b600a6020528060005260406000206000915090505481565b600960003373ffffffffffffffffffffffffffffffffffffffff1673ffffffffffffffffffffffffffffffffffffffff1681526020019081526020016000205481111580156106085750600a6000600560009054906101000a900473ffffffffffffffffffffffffffffffffffffffff1673ffffffffffffffffffffffffffffffffffffffff1673ffffffffffffffffffffffffffffffffffffffff168152602001908152602001600020548111155b610647576040517f08c379a000000000000000000000000000000000000000000000000000000000815260040161063e90611621565b60405180910390fd5b600760009054906101000a900473ffffffffffffffffffffffffffffffffffffffff1673ffffffffffffffffffffffffffffffffffffffff166379cc679033836040518363ffffffff1660e01b81526004016106a4929190611641565b600060405180830381600087803b1580156106be57600080fd5b505af11580156106d2573d6000803e3d6000fd5b5050505080600960003373ffffffffffffffffffffffffffffffffffffffff1673ffffffffffffffffffffffffffffffffffffffff16815260200190815260200160002060008282546107259190611699565b9250508190555080600a6000600560009054906101000a900473ffffffffffffffffffffffffffffffffffffffff1673ffffffffffffffffffffffffffffffffffffffff1673ffffffffffffffffffffffffffffffffffffffff168152602001908152602001600020600082825461079d9190611699565b92505081905550600560009054906101000a900473ffffffffffffffffffffffffffffffffffffffff1673ffffffffffffffffffffffffffffffffffffffff1663a9059cbb33836040518363ffffffff1660e01b8152600401610801929190611641565b6020604051808303816000875af1158015610820573d6000803e3d6000fd5b505050506040513d601f19601f8201168201806040525081019061084491906116f9565b506000600960003373ffffffffffffffffffffffffffffffffffffffff1673ffffffffffffffffffffffffffffffffffffffff16815260200190815260200160002054036108fd576000600860003373ffffffffffffffffffffffffffffffffffffffff1673ffffffffffffffffffffffffffffffffffffffff16815260200190815260200160002060006101000a81548160ff021916908315150217905550600460008154809291906108f790611726565b91905055505b50565b600760009054906101000a900473ffffffffffffffffffffffffffffffffffffffff1681565b6000806000806000806000606060025497506003549650600a6000600560009054906101000a900473ffffffffffffffffffffffffffffffffffffffff1673ffffffffffffffffffffffffffffffffffffffff1673ffffffffffffffffffffffffffffffffffffffff168152602001908152602001600020549550600454945060008054906101000a900473ffffffffffffffffffffffffffffffffffffffff169350600560009054906101000a900473ffffffffffffffffffffffffffffffffffffffff169250600760009054906101000a900473ffffffffffffffffffffffffffffffffffffffff1691506006805480602002602001604051908101604052809291908181526020018280548015610a9557602002820191906000526020600020905b8160009054906101000a900473ffffffffffffffffffffffffffffffffffffffff1673ffffffffffffffffffffffffffffffffffffffff1681526020019060010190808311610a4b575b505050505090509091929394959697565b6000600960008373ffffffffffffffffffffffffffffffffffffffff1673ffffffffffffffffffffffffffffffffffffffff168152602001908152602001600020549050919050565b60008054906101000a900473ffffffffffffffffffffffffffffffffffffffff1681565b60008054906101000a900473ffffffffffffffffffffffffffffffffffffffff1673ffffffffffffffffffffffffffffffffffffffff163373ffffffffffffffffffffffffffffffffffffffff1614610b6b57600080fd5b8060038190555050565b60008054906101000a900473ffffffffffffffffffffffffffffffffffffffff1673ffffffffffffffffffffffffffffffffffffffff163373ffffffffffffffffffffffffffffffffffffffff1614610bcd57600080fd5b80600160006101000a81548173ffffffffffffffffffffffffffffffffffffffff021916908373ffffffffffffffffffffffffffffffffffffffff16021790555050565b60035481565b60045481565b60008054906101000a900473ffffffffffffffffffffffffffffffffffffffff1673ffffffffffffffffffffffffffffffffffffffff163373ffffffffffffffffffffffffffffffffffffffff1614610c7557600080fd5b600560009054906101000a900473ffffffffffffffffffffffffffffffffffffffff1673ffffffffffffffffffffffffffffffffffffffff1663a9059cbb33836040518363ffffffff1660e01b8152600401610cd2929190611641565b6020604051808303816000875af1158015610cf1573d6000803e3d6000fd5b505050506040513d601f19601f82011682018060405250810190610d1591906116f9565b5080600a6000600560009054906101000a900473ffffffffffffffffffffffffffffffffffffffff1673ffffffffffffffffffffffffffffffffffffffff1673ffffffffffffffffffffffffffffffffffffffff1681526020019081526020016000206000828254610d879190611699565b9250508190555050565b60025481565b600560009054906101000a900473ffffffffffffffffffffffffffffffffffffffff1681565b60008060009054906101000a900473ffffffffffffffffffffffffffffffffffffffff1673ffffffffffffffffffffffffffffffffffffffff163373ffffffffffffffffffffffffffffffffffffffff1614610e1857600080fd5b81600560006101000a81548173ffffffffffffffffffffffffffffffffffffffff021916908373ffffffffffffffffffffffffffffffffffffffff160217905590506006829080600181540180825580915050600190039060005260206000200160009091909190916101000a81548173ffffffffffffffffffffffffffffffffffffffff021916908373ffffffffffffffffffffffffffffffffffffffff160217905550919050565b6002548111610ed057600080fd5b600560009054906101000a900473ffffffffffffffffffffffffffffffffffffffff1673ffffffffffffffffffffffffffffffffffffffff166323b872dd3330846040518463ffffffff1660e01b8152600401610f2f9392919061174f565b6020604051808303816000875af1158015610f4e573d6000803e3d6000fd5b505050506040513d601f19601f82011682018060405250810190610f7291906116f9565b50600760009054906101000a900473ffffffffffffffffffffffffffffffffffffffff1673ffffffffffffffffffffffffffffffffffffffff166340c10f1933836040518363ffffffff1660e01b8152600401610fd0929190611641565b600060405180830381600087803b158015610fea57600080fd5b505af1158015610ffe573d6000803e3d6000fd5b5050505060001515600860003373ffffffffffffffffffffffffffffffffffffffff1673ffffffffffffffffffffffffffffffffffffffff16815260200190815260200160002060009054906101000a900460ff161515036110cb576001600860003373ffffffffffffffffffffffffffffffffffffffff1673ffffffffffffffffffffffffffffffffffffffff16815260200190815260200160002060006101000a81548160ff021916908315150217905550600460008154809291906110c590611786565b91905055505b80600960003373ffffffffffffffffffffffffffffffffffffffff1673ffffffffffffffffffffffffffffffffffffffff168152602001908152602001600020600082825461111a91906117ce565b9250508190555080600a6000600560009054906101000a900473ffffffffffffffffffffffffffffffffffffffff1673ffffffffffffffffffffffffffffffffffffffff1673ffffffffffffffffffffffffffffffffffffffff168152602001908152602001600020600082825461119291906117ce565b9250508190555050565b600681815481106111ac57600080fd5b906000526020600020016000915054906101000a900473ffffffffffffffffffffffffffffffffffffffff1681565b60008054906101000a900473ffffffffffffffffffffffffffffffffffffffff1673ffffffffffffffffffffffffffffffffffffffff163373ffffffffffffffffffffffffffffffffffffffff161461123357600080fd5b806000806101000a81548173ffffffffffffffffffffffffffffffffffffffff021916908373ffffffffffffffffffffffffffffffffffffffff16021790555050565b60008060009054906101000a900473ffffffffffffffffffffffffffffffffffffffff1673ffffffffffffffffffffffffffffffffffffffff163373ffffffffffffffffffffffffffffffffffffffff16146112d157600080fd5b8160028190559050919050565b600160009054906101000a900473ffffffffffffffffffffffffffffffffffffffff1681565b600080fd5b600073ffffffffffffffffffffffffffffffffffffffff82169050919050565b600061133482611309565b9050919050565b61134481611329565b811461134f57600080fd5b50565b6000813590506113618161133b565b92915050565b60006020828403121561137d5761137c611304565b5b600061138b84828501611352565b91505092915050565b6000819050919050565b6113a781611394565b82525050565b60006020820190506113c2600083018461139e565b92915050565b60008115159050919050565b6113dd816113c8565b82525050565b60006020820190506113f860008301846113d4565b92915050565b61140781611394565b811461141257600080fd5b50565b600081359050611424816113fe565b92915050565b6000602082840312156114405761143f611304565b5b600061144e84828501611415565b91505092915050565b61146081611329565b82525050565b600060208201905061147b6000830184611457565b92915050565b600081519050919050565b600082825260208201905092915050565b6000819050602082019050919050565b6114b681611329565b82525050565b60006114c883836114ad565b60208301905092915050565b6000602082019050919050565b60006114ec82611481565b6114f6818561148c565b93506115018361149d565b8060005b8381101561153257815161151988826114bc565b9750611524836114d4565b925050600181019050611505565b5085935050505092915050565b600061010082019050611555600083018b61139e565b611562602083018a61139e565b61156f604083018961139e565b61157c606083018861139e565b6115896080830187611457565b61159660a0830186611457565b6115a360c0830185611457565b81810360e08301526115b581846114e1565b90509998505050505050505050565b600082825260208201905092915050565b7f4e6f7420456e6f7567682046756e647300000000000000000000000000000000600082015250565b600061160b6010836115c4565b9150611616826115d5565b602082019050919050565b6000602082019050818103600083015261163a816115fe565b9050919050565b60006040820190506116566000830185611457565b611663602083018461139e565b9392505050565b7f4e487b7100000000000000000000000000000000000000000000000000000000600052601160045260246000fd5b60006116a482611394565b91506116af83611394565b92508282039050818111156116c7576116c661166a565b5b92915050565b6116d6816113c8565b81146116e157600080fd5b50565b6000815190506116f3816116cd565b92915050565b60006020828403121561170f5761170e611304565b5b600061171d848285016116e4565b91505092915050565b600061173182611394565b9150600082036117445761174361166a565b5b600182039050919050565b60006060820190506117646000830186611457565b6117716020830185611457565b61177e604083018461139e565b949350505050565b600061179182611394565b91507fffffffffffffffffffffffffffffffffffffffffffffffffffffffffffffffff82036117c3576117c261166a565b5b600182019050919050565b60006117d982611394565b91506117e483611394565b92508282019050808211156117fc576117fb61166a565b5b9291505056fea2646970667358221220c65db8ce7d084bfd4058aab9a594b8d332526e3f65cbca5c2ab3c9926f5662a864736f6c63430008110033",
  "linkReferences": {},
  "deployedLinkReferences": {}
}